{
  "contractName": "UrlShortener",
  "abi": [
    {
      "inputs": [],
      "payable": false,
      "stateMutability": "nonpayable",
      "type": "constructor"
    },
    {
      "anonymous": false,
      "inputs": [
        {
          "indexed": false,
          "internalType": "string",
          "name": "url",
          "type": "string"
        },
        {
          "indexed": false,
          "internalType": "bytes",
          "name": "slug",
          "type": "bytes"
        },
        {
          "indexed": false,
          "internalType": "address",
          "name": "admin",
          "type": "address"
        }
      ],
      "name": "notify",
      "type": "event"
    },
    {
      "constant": true,
      "inputs": [
        {
          "internalType": "address",
          "name": "",
          "type": "address"
        },
        {
          "internalType": "uint256",
          "name": "",
          "type": "uint256"
        }
      ],
      "name": "shortenedUrls",
      "outputs": [
        {
          "internalType": "bytes",
          "name": "",
          "type": "bytes"
        }
      ],
      "payable": false,
      "stateMutability": "view",
      "type": "function"
    },
    {
      "constant": false,
      "inputs": [
        {
          "internalType": "string",
          "name": "_url",
          "type": "string"
        },
        {
          "internalType": "bool",
          "name": "_paid",
          "type": "bool"
        }
      ],
      "name": "shortenUrl",
      "outputs": [],
      "payable": true,
      "stateMutability": "payable",
      "type": "function"
    },
    {
      "constant": true,
      "inputs": [
        {
          "internalType": "bytes",
          "name": "_shortUrl",
          "type": "bytes"
        }
      ],
      "name": "getUrl",
      "outputs": [
        {
          "internalType": "string",
          "name": "",
          "type": "string"
        }
      ],
      "payable": false,
      "stateMutability": "view",
      "type": "function"
    },
    {
      "constant": true,
      "inputs": [],
      "name": "getAccounts",
      "outputs": [
        {
          "internalType": "address[]",
          "name": "",
          "type": "address[]"
        }
      ],
      "payable": false,
      "stateMutability": "view",
      "type": "function"
    },
    {
      "constant": false,
      "inputs": [],
      "name": "destroy",
      "outputs": [],
      "payable": false,
      "stateMutability": "nonpayable",
      "type": "function"
    }
  ],
  "bytecode": "0x608060405234801561001057600080fd5b5033600360006101000a81548173ffffffffffffffffffffffffffffffffffffffff021916908373ffffffffffffffffffffffffffffffffffffffff160217905550610e57806100616000396000f3fe60806040526004361061004a5760003560e01c80636e5f983b1461004f57806383197ef0146101165780638a48ac031461012d578063ca504a5814610199578063f44dfe02146102da575b600080fd5b6101146004803603604081101561006557600080fd5b810190808035906020019064010000000081111561008257600080fd5b82018360208201111561009457600080fd5b803590602001918460018302840111640100000000831117156100b657600080fd5b91908080601f016020809104026020016040519081016040528093929190818152602001838380828437600081840152601f19601f8201169050808301925050505050505091929192908035151590602001909291905050506103ae565b005b34801561012257600080fd5b5061012b610802565b005b34801561013957600080fd5b50610142610895565b6040518080602001828103825283818151815260200191508051906020019060200280838360005b8381101561018557808201518184015260208101905061016a565b505050509050019250505060405180910390f35b3480156101a557600080fd5b5061025f600480360360208110156101bc57600080fd5b81019080803590602001906401000000008111156101d957600080fd5b8201836020820111156101eb57600080fd5b8035906020019184600183028401116401000000008311171561020d57600080fd5b91908080601f016020809104026020016040519081016040528093929190818152602001838380828437600081840152601f19601f820116905080830192505050505050509192919290505050610923565b6040518080602001828103825283818151815260200191508051906020019080838360005b8381101561029f578082015181840152602081019050610284565b50505050905090810190601f1680156102cc5780820380516001836020036101000a031916815260200191505b509250505060405180910390f35b3480156102e657600080fd5b50610333600480360360408110156102fd57600080fd5b81019080803573ffffffffffffffffffffffffffffffffffffffff16906020019092919080359060200190929190505050610a8c565b6040518080602001828103825283818151815260200191508051906020019080838360005b83811015610373578082015181840152602081019050610358565b50505050905090810190601f1680156103a05780820380516001836020036101000a031916815260200191505b509250505060405180910390f35b600080905060606103be84610b52565b90506000816040518082805190602001908083835b602083106103f657805182526020820191506020810190506020830392506103d3565b6001836020036101000a038019825116818451168082178552505050505050905001915050908152602001604051809103902060020160009054906101000a900460ff166107fc5760405180608001604052803373ffffffffffffffffffffffffffffffffffffffff168152602001858152602001600115158152602001848061047d5750835b15158152506000826040518082805190602001908083835b602083106104b85780518252602082019150602081019050602083039250610495565b6001836020036101000a038019825116818451168082178552505050505050905001915050908152602001604051809103902060008201518160000160006101000a81548173ffffffffffffffffffffffffffffffffffffffff021916908373ffffffffffffffffffffffffffffffffffffffff160217905550602082015181600101908051906020019061054e929190610cfd565b5060408201518160020160006101000a81548160ff02191690831515021790555060608201518160020160016101000a81548160ff021916908315150217905550905050600160003373ffffffffffffffffffffffffffffffffffffffff1673ffffffffffffffffffffffffffffffffffffffff16815260200190815260200160002081908060018154018082558091505090600182039060005260206000200160009091929091909150908051906020019061060c929190610d7d565b505060018060003373ffffffffffffffffffffffffffffffffffffffff1673ffffffffffffffffffffffffffffffffffffffff16815260200190815260200160002080549050116106be5760023390806001815401808255809150509060018203906000526020600020016000909192909190916101000a81548173ffffffffffffffffffffffffffffffffffffffff021916908373ffffffffffffffffffffffffffffffffffffffff160217905550505b7f2102f65e022a0fcb9e2139ffc33ac3535a3763eb18c0c38805dd77a77b3260d38482336040518080602001806020018473ffffffffffffffffffffffffffffffffffffffff1673ffffffffffffffffffffffffffffffffffffffff168152602001838103835286818151815260200191508051906020019080838360005b8381101561075857808201518184015260208101905061073d565b50505050905090810190601f1680156107855780820380516001836020036101000a031916815260200191505b50838103825285818151815260200191508051906020019080838360005b838110156107be5780820151818401526020810190506107a3565b50505050905090810190601f1680156107eb5780820380516001836020036101000a031916815260200191505b509550505050505060405180910390a15b50505050565b600360009054906101000a900473ffffffffffffffffffffffffffffffffffffffff1673ffffffffffffffffffffffffffffffffffffffff163373ffffffffffffffffffffffffffffffffffffffff16141561089357600360009054906101000a900473ffffffffffffffffffffffffffffffffffffffff1673ffffffffffffffffffffffffffffffffffffffff16ff5b565b6060600280548060200260200160405190810160405280929190818152602001828054801561091957602002820191906000526020600020905b8160009054906101000a900473ffffffffffffffffffffffffffffffffffffffff1673ffffffffffffffffffffffffffffffffffffffff16815260200190600101908083116108cf575b5050505050905090565b6060600080836040518082805190602001908083835b6020831061095c5780518252602082019150602081019050602083039250610939565b6001836020036101000a038019825116818451168082178552505050505050905001915050908152602001604051809103902090508060020160009054906101000a900460ff1615610a4d57806001018054600181600116156101000203166002900480601f016020809104026020016040519081016040528092919081815260200182805460018160011615610100020316600290048015610a405780601f10610a1557610100808354040283529160200191610a40565b820191906000526020600020905b815481529060010190602001808311610a2357829003601f168201915b5050505050915050610a87565b6040518060400160405280600c81526020017f4e4f5420494e205441424c4500000000000000000000000000000000000000008152509150505b919050565b60016020528160005260406000208181548110610aa557fe5b90600052602060002001600091509150508054600181600116156101000203166002900480601f016020809104026020016040519081016040528092919081815260200182805460018160011615610100020316600290048015610b4a5780601f10610b1f57610100808354040283529160200191610b4a565b820191906000526020600020905b815481529060010190602001808311610b2d57829003601f168201915b505050505081565b606060006002836040516020018082805190602001908083835b60208310610b8f5780518252602082019150602081019050602083039250610b6c565b6001836020036101000a0380198251168184511680821785525050505050509050019150506040516020818303038152906040526040518082805190602001908083835b60208310610bf65780518252602082019150602081019050602083039250610bd3565b6001836020036101000a038019825116818451168082178552505050505050905001915050602060405180830381855afa158015610c38573d6000803e3d6000fd5b5050506040513d6020811015610c4d57600080fd5b8101908080519060200190929190505050905060006064905060007fffffff000000000000000000000000000000000000000000000000000000000060001b9050808284901b1660405160200180827cffffffffffffffffffffffffffffffffffffffffffffffffffffffffff19167cffffffffffffffffffffffffffffffffffffffffffffffffffffffffff191681526003019150506040516020818303038152906040529350505050919050565b828054600181600116156101000203166002900490600052602060002090601f016020900481019282601f10610d3e57805160ff1916838001178555610d6c565b82800160010185558215610d6c579182015b82811115610d6b578251825591602001919060010190610d50565b5b509050610d799190610dfd565b5090565b828054600181600116156101000203166002900490600052602060002090601f016020900481019282601f10610dbe57805160ff1916838001178555610dec565b82800160010185558215610dec579182015b82811115610deb578251825591602001919060010190610dd0565b5b509050610df99190610dfd565b5090565b610e1f91905b80821115610e1b576000816000905550600101610e03565b5090565b9056fea265627a7a72315820a17817d9efcbfa9d0b02f5034907355a46985cae5aa875f28938bdcd19dc87b364736f6c63430005100032",
  "source": "// SPDX-license_Identifier: MIT\n\npragma solidity >=0.5.0;\n\ncontract UrlShortener {\n    struct urlStruct {\n        address admin; // address of person shortening a url\n        string url; // the long complex url to be shortened\n        bool exists; // true if shortened url is present, false otherwise\n        bool paid; // true if the person paid for the transaction, false otherwise\n    }\n\n    mapping(bytes => urlStruct) table; // maps the shortened url(bytes) to a urlStruct\n    mapping(address => bytes[]) public shortenedUrls; // maps an address to an array of shortened urls(bytes array)\n\n    address[] accounts; // an array to store account address of users who interact with contract\n    address payable admin; // the owner of this contract, paid per url shortened\n\n    event notify(string url, bytes slug, address admin); // to be listened by any frontend\n\n    constructor() public {\n        // initializes admin as the contract creator(has special priviledges)\n        admin = msg.sender; // msg.sender holds the address of the person interacting with contract initially\n    }\n\n    // URL SHORTENER LOGIC\n\n    // generate a short URL using SHA256 hashig algorithm\n    function hashUrl(string memory _url) internal pure returns (bytes memory) {\n        bytes32 hash = sha256(abi.encodePacked(_url)); // hash url using sha hashing algorithm\n        uint256 shiftBy = 100; // shift bits by\n        bytes32 mask = 0xffffff0000000000000000000000000000000000000000000000000000000000; // hex value to act as the mask\n        return abi.encodePacked(bytes3((hash << (shiftBy)) & mask));\n    }\n\n    // shortens url and maps it to user\n    function shortenUrl(string memory _url, bool _paid) public payable {\n        bool initialPaid = false; // user has not yet paid initially\n        bytes memory shortenedHash = hashUrl(_url); // this is the shortened url\n\n        if (!table[shortenedHash].exists) {\n            // check is shortened url is already in table\n            table[shortenedHash] = urlStruct(\n                msg.sender,\n                _url,\n                true,\n                _paid || initialPaid\n            ); // add url to table of mappings\n            shortenedUrls[msg.sender].push(shortenedHash); // adding the shortened url to the list of urls a person has shortened before\n\n            if (shortenedUrls[msg.sender].length <= 1) {\n                // check if it is the first time for a person to shorten an array\n                accounts.push(msg.sender); // if so we add him/her to a list of users who interact with this contract\n            }\n\n            emit notify(_url, shortenedHash, msg.sender); // amit a notification that we can listen on the frontend side\n        }\n    }\n\n    // OTHER FUNCTIONS\n\n    // get url from table of mappings\n    function getUrl(bytes memory _shortUrl)\n        public\n        view\n        returns (string memory)\n    {\n        // read from the state\n        urlStruct storage shortenedUrl = table[_shortUrl];\n        if (shortenedUrl.exists) {\n            // check if shortened url exists in table\n            return shortenedUrl.url; // if so, return it\n        }\n        return \"NOT IN TABLE\"; // otherwise return this text\n    }\n\n    // returns a list of accounts from accounts array\n    function getAccounts() public view returns (address[] memory) {\n        return accounts;\n    }\n\n    function destroy() public {\n        // delete a smart contract from the blockchain\n        if (msg.sender == admin) {\n            // remaining ether on contract sent to a admin.\n            selfdestruct(admin); // storage and code deleted from blockchain\n        }\n    }\n}\n",
  "sourcePath": "/home/lumunge/Documents/WEB3/UrlShortener/contracts/UrlShortener.sol",
  "compiler": {
    "name": "solc",
    "version": "0.5.16+commit.9c3226ce.Emscripten.clang"
  },
  "schemaVersion": "3.4.8",
  "updatedAt": "2022-07-08T21:43:17.991Z",
  "networkType": "ethereum",
  "devdoc": {
    "methods": {}
  },
  "userdoc": {
    "methods": {}
  }
}